:1000000000000420750300005D0300005F03000092
:1000100061030000630300006503000000000000AE
:100020000000000000000000000000006703000066
:1000300069030000000000006B0300006D03000076
:100040006F0300006F030000512400006F030000E5
:100050006F0300006F030000D52200006F03000053
:100060006F0300006F0300006F0300006F030000C8
:100070006F0300006F0300006F0300006F030000B8
:100080006F030000751700006F0300006F0300008E
:100090006F0300006F0300006F0300006F03000098
:1000A0006F0300006F0300006F0300006F03000088
:1000B0006F0300006F03000000000000000000005C
:1000C0006F0300006F0300006F0300006F03000068
:1000D0006F0300006F0300006F0300006F03000058
:1000E0006F0300006F0300006F03000000000000BA
:1000F000000000006F030000000000006F0300001C
:1001000000000000000000000000000000000000EF
:1001100000000000000000000000000000000000DF
:1001200000000000000000000000000000000000CF
:1001300000000000000000000000000000000000BF
:1001400000000000000000000000000000000000AF
:10015000000000000000000000000000000000009F
:10016000000000000000000000000000000000008F
:10017000000000000000000000000000000000007F
:10018000000000000000000000000000000000006F
:10019000000000000000000000000000000000005F
:1001A000000000000000000000000000000000004F
:1001B000000000000000000000000000000000003F
:1001C000000000000000000000000000000000002F
:1001D000000000000000000000000000000000001F
:1001E000000000000000000000000000000000000F
:1001F00000000000000000000000000000000000FF
:10020000354936480A1A02D0072291438D463449AF
:1002100034480A1A06D00722914381F30988022242
:1002200082F3148830483149314A00F044F83148AB
:100230003149324A00F03FF831483249324A00F041
:100240003AF832483249334A00F035F832483349F7
:10025000334A00F030F833483349344A00F02BF881
:1002600033483449344A00F026F8344834490022EF
:1002700000F02CF833483449002200F027F83348C6
:100280003349091A082902DB002202604160314A21
:1002900090471F481F49884205D00268043003B4C4
:1002A000904703BCF7E700208646EC46002000217B
:1002B000294A9047FEE7884207D0521A05D00378B2
:1002C00001300B700131013AF9D17047884202D0F8
:1002D00002700130FAE770470000042000E00320BC
:1002E0000000042000000420A43D000000000020C5
:1002F0003C000020D0030000D00300008A3800003A
:10030000A43D00000000002000000020F0380000A4
:10031000F0380000F0380000F0380000F03800003D
:10032000F0380000F0380000F0380000A23D000076
:10033000E03D00003C0000203C0000203C0000208C
:100340004E080020500800205008002050080020CF
:10035000502800209D0300001D330000FEE7FEE74B
:10036000FEE7FEE7FEE7FEE7FEE7FEE7FEE7FEE765
:1003700000F002B8FFF7FCBF0F484FF007018843B9
:1003800085460E4880470E48016841F470010160BF
:10039000BFF34F8FBFF36F8FFFF732BF09480A4992
:1003A0000A4A884207D0521A05D0037801300B70F0
:1003B0000131013AF9D170470000042015340000E2
:1003C00088ED00E0F0380000000000200000002070
:1003D000F0B595B01D46164608460C4601F048FD9E
:1003E0001A9B0D93CDE9086500252B46082205A927
:1003F00020460A958DF82C500C9501F055FD079B71
:100400000293069B03939DF814308DF8115003F06E
:100410000302012A1DD1BDF81420059DC3F3C203B8
:10042000C2F383168DF81030B20008230EA92046BF
:1004300001F03AFDC5F3952508AB0093324602ABB7
:100440000EA9284600F096FB204601F015FD15B0D8
:10045000F0BD022AF8D1BDF81650C3F3C203C5F3AC
:1004600089158DF810300827082D2E4628BF08263C
:100470003B4632460EA9204601F016FDAD1B08ABE7
:1004800002AA31460EA8374400F0D8FB002DEBD16C
:10049000DAE70000014B01221A7070477D0000204E
:1004A0007047000070B50E4D06460FCD88B06C4603
:1004B0000FC495E80F00002E84E80F00094A0A488F
:1004C0004FF0060308BF00226946009301F05AFD71
:1004D00008B100F01DFE054B1E7008B070BD00BFD6
:1004E000F038000095040000000000203C000020CF
:1004F00007B5044B0093044A4023FFF769FF03B09C
:100500005DF804FB0D0500003D00002038B50D48E6
:100510000D4C0E4D002323700378EB5CD2B263B117
:10052000043002F059FC08B100F0F2FD084B1A78D3
:1005300012B12378002BFBD038BD0C3002F0DCF96F
:10054000F1E700BF000000207D000020040700202C
:100550003C00002008B50848084A0378D35C3BB14A
:10056000043002F0A9FBBDE808400020FFF79ABF65
:100570000C3002F059F9F6E70000002004070020D3
:100580000120FFF78FBF000008B5FFF7F9FF04480F
:10059000042100F059FA034B01225A7108BD00BF33
:1005A000CC38000014000020037813F0040216D0A9
:1005B00003F00303012B03D0022B09D00120704765
:1005C0000A6800880232C0F3831002440A60F5E72B
:1005D0000B684288023303EB92130B60EEE7104680
:1005E000704700002DE9F04FDFF810A10F4685B0ED
:1005F0000446861C0020154600F084FFDAF804202B
:100600003A60DAF8083003F580739B1A0AF21C4747
:100610000AF583690AF21448B34219D30020002D69
:1006200068D004F00F039B0143F0050363F30F0050
:10063000DAF80430DAB2033233444AF822000020F8
:10064000CAF8043000F060FF012005B0BDE8F08F6B
:100650000121384601F043F9484601F058F9404677
:1006600001F055F9DAF808000090C0B203300AEB47
:1006700080006946FFF798FF009B30BBDAB20AEBB7
:100680008202D16801919A1C0133DBB20AEB830329
:100690000092D3F80CB001F00303012B22D0022BFF
:1006A00015D08346404601F035F910B1009BCAF8D9
:1006B00008305946384601F012F9DAF80830DAF80D
:1006C000042003F580739B1AA6E7D8B2CEE7BDF8E5
:1006D0000630C3F3891303334FEA1B4B02EB93033A
:1006E0000093DFE7BDF80430C3F383134FEA1B4BDD
:1006F0001344F5E7A40544F0060099E750010020F3
:10070000064B074810B500221A7001F06AFB044638
:1007100010B9044801F0D2FB204610BD5001002062
:10072000DC3800004439000030B50A4C71B10A4A87
:100730000A49121BD20800239A4201D1002030BD81
:1007400031F82350854202D00133F5E7034654F8CF
:100750003300F4E78C380000CC38000000000020A3
:10076000094B013903EBC000032909D8DFE801F088
:100770000A020406042070470079704740797047E8
:1007800000207047022070478C380000034BD3E9EB
:100790000130C31A58425841704700BF5001002031
:1007A0002DE9FF41FFF7F2FF0546002840F0E98000
:1007B000754CC4F81804BFF34F8FA3680093DBB2E5
:1007C000033304EB83006946FFF7EEFE009B18B18C
:1007D000D4F81824002A5AD0DAB2991C013304EB59
:1007E0008202DBB204EB8303D268DB68029302F07F
:1007F0000303022B0192009154D1BDF806306348E7
:10080000C3F38917502F3E4628BF502606F1080132
:1008100066F38F13C1F30901ADF8063001F0F9FA60
:100820000546002800F0988001F022FB00230822F2
:1008300001A9284601F02EFB0099CB43DBB201331E
:10084000C9B20331B6EB830F4FEA830204EB810197
:1008500025D95FFA82F80823A6EB0806284601F09E
:1008600019FBF6B208F10803494903F0FC033246CC
:10087000284601F00FFB009B033703EB9707009717
:10088000D4F81834002B43D1D4F8106453E06268D4
:100890009A4294D8A260284604B0BDE8F0810823AB
:1008A0003246E5E7012B57D1BDF804303748C3F392
:1008B0008311062928BF062161F38913023101F053
:1008C0000F018900ADF8043001F0A3FA05460028B5
:1008D00042D001F0CDFA0023082201A9284601F0F8
:1008E000D9FA0026BDF80420C2F38312B300964261
:1008F00003F10803C4D200994A1CC9B20331009223
:1009000004EB81010422284601F0C4FA0136E9E72C
:10091000284601F0B1FAFFF739FF80F00100C5B2B7
:10092000B9E7F3685B7923B1336829461B68304621
:100930009847F3681E68002EF3D1284601F09CFA10
:10094000304600F0DFFDD4F818340BB9009BA360EB
:10095000002000F0D9FDDEE7D4F8104454B90D4B67
:100960000D480E49C01AC008000440F0020000F013
:100970005DF8D0E7236820469B689847E3681C68C9
:10098000ECE7002587E700BF50010020DC380000BD
:100990005C0100208C380000AC3800002D390000CC
:1009A0002DE9F34704460E46924601A90122184656
:1009B0009946FFF717FE1B4F10B3019D4FF000083B
:1009C000AA1CC84508EB020123D11748002100F0FA
:1009D00063FF80F31000000440EA1440E4006B1C45
:1009E00004F03804DBB2EDB244F0010407EB8303FA
:1009F000033544EA881444EA8624D86047F8254041
:100A00003B781BB1FFF7CCFE0028FBD102B0BDE85C
:100A1000F087C9B207EB81015AF82830CB6008F1A2
:100A20000108CEE7500100206C05002000231A4683
:100A3000FFF7B6BF07B50123019201AAFFF7B0FF88
:100A400003B05DF804FB000030B50F4CD4F810245F
:100A500003460020114631B9D96808714AB9C4F873
:100A600010340A6030BDC9680D79854206D0096826
:100A7000F1E7D26814680C601360F3E701300A28CC
:100A8000E8D14FF0FF30EDE75001002038B5084BBA
:100A90000125D3F810441D7004B938BDE3685D71B9
:100AA000236820465B689847E3681C68F4E700BF4A
:100AB0005001002030B5C38885B004460D4633B1DF
:100AC000144A00921449154A284600F07DFF217A05
:100AD00005291DD0637A4BB1A088FFF741FE104B6A
:100AE000104953F82020284600F06EFF227A0E4B62
:100AF000A08853F8222003920021FFF715FE039AE5
:100B00000A490346284605B0BDE8304000F05CBF06
:100B100005B030BD70390000583900005039000070
:100B2000DC39000075390000003A00007839000017
:100B300007B503460846197A052911D05B7A2BB10F
:100B4000094A0A49019000F03FFF019808490190C5
:100B500000F03AFF019803B05DF804EB00F029BF04
:100B6000002AF8D0F2E700BF7039000075390000A4
:100B70006D3900002DE9F04385B01F460C9D002320
:100B800095F80C902B7306460C469046294638463D
:100B9000FFF790FFB8F1060F09D8DFE808F004125C
:100BA000181F283340003146284600F00DFF002270
:100BB00029463846FFF7BCFF85F80C9005B0BDE824
:100BC000F08322683146284600F0FEFEEFE7D4E9C4
:100BD00000233146284600F0F7FEE8E7A3680093BB
:100BE0003146D4E90023284600F0EEFEDFE7E36853
:100BF0000193A36800933146D4E90023284600F00E
:100C0000E3FED4E723690293E3680193A3680093AA
:100C10003146D4E90023284600F0D6FEC7E76369D1
:100C2000039323690293E3680193A3680093314619
:100C3000D4E90023284600F0C7FEB8E708292DE9CB
:100C4000F74F80460E4617461C463CD8002593F8C1
:100C50000C901D7319461046FFF72CFFDFF888A093
:100C6000DFF888B0AE4231D918F805205946204641
:100C700000F0AAFE0135082DF4D11949194DDFF80D
:100C800070A0204600F0A0FE4FF0000B5E4522D978
:100C900018F80B207E2A05D81046019202F064FD58
:100CA000019A00B92E225146204600F08DFE0BF12C
:100CB000010BBBF1080FE9D1012221463846FFF7AD
:100CC00037FF84F80C9003B0BDE8F08F5146204602
:100CD00000F07AFECEE72946204600F075FEE6E7F2
:100CE0008C3900008A390000883900008239000000
:100CF0008E390000074B1B5C1F2B8ABF064A4FF042
:100D0000A04203F01F03D2F80405D840C04300F00E
:100D100001007047143A000000030050074B1B5CB1
:100D20001F2B86BF064903F01F034FF0A04101228D
:100D300002FA03F3C1F80C35704700BF143A000003
:100D400000030050074B1B5C1F2B86BF064903F0B6
:100D50001F034FF0A041012202FA03F3C1F8083546
:100D6000704700BF143A00000003005008B500208F
:100D7000FFF7E8FF0120FFF7E5FF0220FFF7E2FFA2
:100D8000BDE808400320FFF7DDBF08B50020FFF7EE
:100D9000C5FF0120FFF7C2FF0220FFF7BFFFBDE83C
:100DA00008400320FFF7BABF0A4B185C1F288ABF10
:100DB000094B4FF0A04300F01F00D3F80425012198
:100DC000814021EA02000A40C3F80805C3F80C2557
:100DD000704700BF143A0000000300500B2809D0F0
:100DE0000C2809D0182809D019280CBF03204FF06F
:100DF000FF30704700207047012070470220704785
:100E0000C20710B504460CD54FF0A0430322C3F827
:100E10003427C3F83827C3F83C27C3F84027FFF727
:100E2000A5FFA3070AD54FF0A0430C22C3F82C2737
:100E3000C3F83027C3F86027C3F8642710BD00004B
:100E4000C30710B507D4F023054A4008145C2340BB
:100E50001943115410BD0901C9B20F23F4E700BFB3
:100E60003806002030B5094B1C78094B196800235F
:100E70009C4202DC0022104630BD11F833508542FE
:100E800001EBC302F7D00133F2E700BF08060020F0
:100E90005806002013B504460191FFF7E3FF38B16F
:100EA00043682BB10199204602B0BDE810401847B5
:100EB00002B010BD034B044819680022490800F035
:100EC00022BA00BF0C0600201006002010B5C0B2E8
:100ED000FFF7C8FF0446007801F0EEF963785A1E68
:100EE00053425341834208D1044BD3E900231343B7
:100EF00003D1BDE81040FFF7DDBF10BD3006002074
:100F000038B5334A43080446D35CC2074CBF1B09BB
:100F100003F00F030D46042B59D8DFE803F003223A
:100F20002A363900002952D00121FFF789FF00201D
:100F300000F0E8FA0120A4F12003C4F12001254AC1
:100F400020FA01F100FA03F30B43A040D2E900417B
:100F500020430B43C2E90003BDE83840002000F005
:100F6000D3BA002918BF02212046BDE83840FFF758
:100F700067BF41B10321FFF763FF20460121BDE8B0
:100F80003840FFF787BF0121EEE701BB0421EBE703
:100F900009B10321E8E7FFF753FF29462046FFF791
:100FA00079FF284600F0AEFA0120A4F12003C4F135
:100FB0002001084A20FA01F100FA03F30B43A04094
:100FC000D2E9004124EA000021EA0303C2E738BD68
:100FD00038060020300600202DE9F041124E134F54
:100FE00000243378A34208DC114BD3E900231343D8
:100FF00018D0BDE8F041FFF75DBF3D6805EBC408C0
:1010000015F8340001F058F998F801305A1E53428F
:101010005341181A4142414115F83400FFF770FF5F
:101020000134DEE7BDE8F081080600205806002004
:1010300030060020092AF7B505460C4616463ED96B
:1010400001F062F8E8B11F4B1F481D601F4B204F95
:101050001C70204B002120221E6002F0B3FB1E4BAF
:1010600000200021C3E90001013CE4B20326FF2C6B
:101070000DD11A4A1A48002103B0BDE8F04000F033
:1010800037B900F0FBFF0028DDD003B0F0BD9DF8BC
:10109000063015F834008DF8046005EBC40223F027
:1010A00007038DF8063001A993788DF805303A468C
:1010B00001F034F8013CE4B20028D8D0E5E707207D
:1010C000E3E700BF5806002038060020080600208D
:1010D000CD0E00000C06002030060020D90F0000C5
:1010E000243A000070B5084D084E00242B789C422D
:1010F00001D3002070BD3368012113F8340001F0E2
:101100008DF80134F2E700BF0806002058060020E1
:101110001FB50021039001AA44F20100CDE901119D
:1011200000F004F805B05DF804FB000038B572B6B5
:10113000FFF7ACFCFFF734FB0028FBD1104B114C40
:10114000114D1249E41AE408240444F00100FFF7A9
:101150006DFCD5F8F030DB0700D500BE0C4944F03B
:101160000200FFF763FCBFF34F8FEA68094B02F4FC
:10117000E0621343EB60BFF34F8F00BFFDE700BF9A
:101180008C380000AC38000000ED00E0283A000088
:10119000343A00000400FA0510B5D0E90243D1E961
:1011A0000202A04272EB03032CBF0120002010BDFD
:1011B00008B50A4800F0C7FA094AD2E90031C01858
:1011C000084BD3E9002341F10001904271EB030386
:1011D00003D210F1807041F1000108BD1C00002015
:1011E00060060020D806002037B505460C460A48A0
:1011F00001A900F0DCFA60B10570446001A906485D
:1012000000F0FFFA18B1054800F0A2FA002003B080
:1012100030BD0420FBE700BFC40600201C000020F6
:1012200038B5184B1B78044613B90025284638BD3D
:101230000028FAD0037F03F0FF05002BF5D0FFF75D
:10124000B7FFD4E90223904271EB030314D323695F
:1012500003B92377D4E90530984721690029E4D000
:10126000237F03F0FF05002BDFD0D4E902325B18A7
:1012700042F10002C4E902320348214600F027FE91
:10128000D4E700BF68060020503A000013B5114BA8
:1012900011491868019008231048582200F074FA88
:1012A000044698B90E4A0F4801A900F03DF90446DA
:1012B00060B90C48012100F029FA01230A4A0948C3
:1012C000194600F08BF9094B01221A70204602B032
:1012D00010BD00BF4C3A00006C060020C406002080
:1012E000511300001C000020FFFF7F006806002053
:1012F0003AB103685A614A1E5142514119610020B6
:1013000070470720704738B5037F04460D4683B900
:101310008261FFF74DFF2369281841F10001C4E9FC
:10132000020103B1256121460020BDE83840FFF7E6
:101330005BBF002038BD0023014603770120FFF783
:1013400053BF0000014800F0FEB900BF1C000020A0
:101350002DE9F347064600F0E1F940B1584AD2E9D9
:10136000003113F1807341F10001C2E90031002125
:10137000304600F0E2F938B1524C236823B12068BE
:10138000FFF74EFF002323600121304600F0D5F91E
:1013900020B1FFF70DFF4C4BC3E900014B48494D0D
:1013A0004B4C4C4F01A900F03CFA002842D1DFF829
:1013B0002081444CDFF82491404600F09EFD2368D4
:1013C000002872D07BB12368D0E90252D3E902131E
:1013D0008D4272EB03032AD223681B7F1BB1216865
:1013E000404600F074FD404600F081FDD0E9027AED
:1013F0000546FFF7DDFE381A6AEB010A01287AF18B
:10140000000345DBB0F5350F40D3FFF79BFF324AB1
:1014100002444FF496030021484600F0FFF80028EC
:101420003ED1236813B9304600F0D0F8256002B0F1
:10143000BDE8F0870378012B1DD0022B09D14FF0B6
:101440000008204600F053FD002836D080F81C80AC
:10145000F7E73BB941680B7F23B901230B7720469F
:1014600000F035FD01A9194800F006FA01A9174856
:1014700000F0D7F999E741682B68994202D100231F
:101480002B60EFE7204600F03BFDEBE7AA68C0E7E2
:101490000021484600F047F92846FFF7C1FE01E069
:1014A0000D28F9D00023236086E7002BBFD13046FA
:1014B00002B0BDE8F04700F08DB801233B70D1E7E2
:1014C00060060020E0060020D8060020C4060020A8
:1014D000503A000068060020FFFFB4001C00002006
:1014E00072B6024A1368013313607047E4060020A5
:1014F000034A1368013B136003B962B6704700BF2B
:10150000E4060020FFF7ECBFFFF7F2BF435882B0BC
:101510003BB10023435043580193019B012002B08B
:1015200070471846FBE70000F8B5204B4479204E81
:1015300043F824201F4A204B06EBC4049B1A22794F
:10154000DB081B0432B143F002001C49FFF76EFABE
:101550000820F8BD02680C88C2F8084590F90450CC
:101560008A7804795201002DD2B219DB14494F193F
:1015700087F8002301226D0904F01F0402FA04F425
:1015800041F82540427906EBC201012446F83200B9
:101590000C7143F003000B49FFF748FA0020D8E72D
:1015A000094904F00F040A55ECE700BFF0060020DB
:1015B000E80600208C380000BC3800005C3A0000CF
:1015C00000E100E07E3A000014ED00E00368012233
:1015D0001A607047036801225A60704773B501F1C1
:1015E0005005AD000068ADB24FF480348C40002649
:1015F000C0F80843C0F84843465101F5A871455961
:10160000019522F07F42019D40F82120C0F844431B
:101610000BB1C0F8044302B070BD00002DE9F74FD4
:101620000D4622F07F4402684FF4803705F15006E2
:101630008F408046B60002EB8500C2F84873B6B210
:10164000C2F80873D2F8041599464FF0000BD0F891
:101650004035C0F8401542F806B05B1A9259009226
:1016600023F07F43012B009A4FEA850A0CD1264BC9
:101670004FF4806043F001039847D8F8003043F8F6
:1016800006B09B590193019BD8F80010D1F804656E
:10169000C1F84473A31B23F07F43012B1CD11A4BC9
:1016A00005F5A875013443F0010341F825404FF4D6
:1016B00080609847D8F80030D3F804359E4209D1AD
:1016C000D8F800300020C3F84473C3F8047303B0A3
:1016D000BDE8F08F0D20FAE78A44C9F1FF13CAF87C
:1016E0004045D1F80405221A013A22F07F4203F561
:1016F0007F439342EED3002AE2D10134CAF8404539
:10170000D1F804359842DAE7903A000003680222E3
:10171000C3F8442309B1C3F80423704700684FF4A9
:101720008271FFF7F3BE4FF4803303FA01F10368CF
:10173000C3F84813C3F80813704750318900006894
:1017400089B2FFF7E3BE0368D3F8040570470000D1
:1017500090F90430002B09DB5A09012103F01F0323
:1017600001FA03F34032024941F82230704700BFCA
:1017700000E100E0024B034A1B681068184700BFF5
:10178000F0060020E806002010B561B1B2FBF3F4CA
:1017900003FB1424A4B244B9C0E90014846082811C
:1017A000C381204610BD0E20FCE70920FAE737B5BB
:1017B00050E8013F9DB2C48925448489A54228BFD1
:1017C0002D1B0489A54202BFBFF32F8F002207E023
:1017D000C5EA030540E80154002CE9D14FF00102AD
:1017E0008DF803200193019A0A609DF8031001F01F
:1017F000FF0321B1006810FA82F003B030BD184633
:10180000FBE70A884B889A4209D150E8012FC2EAC7
:10181000024240E80123002BF7D10120704700204D
:10182000704737B550E8023F1FFAA3F5C488A542B8
:1018300002BFBFF32F8F00220DE0C48925448489A5
:10184000A54228BF2D1BC3EA054540E80254002CE1
:10185000E8D14FF001028DF803200193019A0A604C
:101860009DF8031001F0FF0321B1006800EB124066
:1018700003B030BD1846FBE70A884B889A4209D16D
:1018800050E8022FC2EA224240E80223002BF7D19F
:10189000012070470020704710B5034653E8000F41
:1018A0000A4643E8002494F0000FF7D110BD10B5AC
:1018B000034653E8002F42EA010043E8000494F095
:1018C000000FF6D110BD10B5034653E8000F00EA33
:1018D000010243E8002494F0000FF6D110BD10B5CA
:1018E000034653E8002F02EB010043E8000494F0A4
:1018F000000FF6D110BD10B5034653E8002FA2EB40
:10190000010043E8000494F0000FF6D110BD01215E
:10191000FFF7CDBF0021FFF7D6BF10B590B1D0E9DA
:10192000012301689B1ADBB20A60013BDBB2FF2B8B
:10193000026802D10020107110BD11684C1C1460A7
:101940000B70F2E70E20F7E738B504460020FFF7EA
:10195000D9FD226863681168994213D9481E106046
:1019600011F8013CE568218A01FB0355A368117950
:101970001B1ADBB2994200D213710020FFF7C4FD9D
:10198000284638BD0025F8E738B5054600200C4646
:10199000FFF7B8FD2A681368591C1160E968641ADA
:1019A000298AB4FBF1F41C70BDE838400020FFF731
:1019B000ABBD826810B504462AB14369016800696D
:1019C00098470023A36010BD0EB403B5039921B15D
:1019D00004AB01AA019300F077F802B05DF804EBC4
:1019E00003B070470A2938B504460D4602D10D21CF
:1019F000FFF7F8FFA3682268591CA160D554D4E909
:101A000001329A4204D32046BDE83840FFF7D1BFE7
:101A100038BD00002DE9F84F9846DDE90A43154628
:101A200082460F460A464FF00109AA420FD2C1452D
:101A300038BFC14613F0010B01D16CB90024012657
:101A4000B8F1010F1BD908F1FF386E43F8E709F12F
:101A50000109B2FBF5F2E8E79B070ED5B8F1000FDC
:101A60000CBF30262026A145E9D2013C3146504624
:101A7000FFF7B8FF002CF6D1E0E72026F3E7B7FB2D
:101A8000F6F39D42E1D9DFF83C80B7FBF6F3504610
:101A900018F8031006FB1377FFF7A4FF3346AB4299
:101AA000B6FBF5F6F1D2BBF1000F02D00CB1A145A7
:101AB00001D3BDE8F88F20215046013CFFF792FF8B
:101AC000F4E700BF963A00002DE9F74F05461746A8
:101AD0008846002900F03E8118F8011B49B92B7B8C
:101AE000002B00F03781284603B0BDE8F04FFFF728
:101AF00060BF252940F0B780002698F800302D2BD4
:101B0000424608F1010823D0302B24D02B2B25D0BE
:101B100000242A2B02F1010123D13B681A1D1B6806
:101B20003A601C440A4613782E2B26D101324FF01E
:101B3000000A104610F8011BA1F1300CBCF1090F8E
:101B40001DD80A2303FB0A13A3F1300A0246F0E76B
:101B500046F00106D1E746F00206CEE746F004065D
:101B6000CBE711F8013CA3F130000928DBD80A22A9
:101B700002FB0434303C0A46CBE74FF0000A12F86F
:101B8000011B01F0FB0068289046F8D0782909D89D
:101B90006F290CD8632962D022D8252963D058290F
:101BA00000F0888098F80030002B95D197E77039C5
:101BB0000829F7D801A353F821F000BF2F1D00001A
:101BC000A51B0000A51B0000C51C0000A51B0000F4
:101BD000A31C0000A51B0000A51B0000B51C0000F5
:101BE000642901D06929DDD13A68D2F80090111D2D
:101BF00089EAE9723960A2EBE9724FF0010B092A18
:101C000035DCD34538BFD3462CB1B9F1000F01DB29
:101C1000720700D5013CB30702D5BAF1000F03D01B
:101C2000F00701D44CBB0024B9F1000F2DDAC9F143
:101C300000092D212846FFF7D5FE06F00302022AEF
:101C400004D1BAF1000F01D11CBB0024CDE900463C
:101C500053460A2249462846FFF7DCFEA2E73B68C6
:101C60001A1D19783A602846FFF7BCFE9AE70A2346
:101C70000BF1010BB2FBF3F2C1E7A345D4D2202153
:101C80002846013CFFF7AEFECCE77107D5D52B21E6
:101C9000D0E7A345DAD230212846013CFFF7A2FE67
:101CA000D2E73968CDE900460A1D3A6053460A2258
:101CB0000968D0E739680A1D3A60CDE90046534605
:101CC0001022F5E73B681A1D3A6016F00106D3F8BA
:101CD000009024D1B9F1000F03D0484601F0A5FDD2
:101CE0000646B4421DD809F1FF3919F8011F002931
:101CF0003FF458AF2846FFF775FEF6E72846013651
:101D0000FFF770FE19F806100029F7D1A642BFF4BC
:101D100049AF20212846013CFFF764FEF6E7002684
:101D2000F0E720212846013CFFF75CFED9E73B683D
:101D30001A1D3A60302128461C68FFF753FE7821AF
:101D40002846FFF74FFE00220823CDE90032214646
:101D5000102280E703B0BDE8F08F00BF2DE9F84FF7
:101D6000B0F806A04579D2F800B09DF828900AFB9B
:101D700005F5043D88460BEB0301A94203F1040479
:101D800088BFA5EB030BB4FBFAF607460AFB164423
:101D9000C2F800B04EB9AAEB04055D4528BF5D4608
:101DA000BBF1000F04D1BDE8F88F3F68013EF1E7B9
:101DB000043408EB06003C442A46B9F1000F0DD06C
:101DC0002146ABEB050B01F0D4FCDA452E443F680D
:101DD00055464FF0000428BF5D46E1E70146204626
:101DE000EFE7FFF79ABDF8B546790146721E054642
:101DF000002393422D6803D30024A64202D8F8BDE5
:101E00000133F6E70F682846FFF7BEFD0134394677
:101E1000F3E72DE9F843068ACD1C0746FFF794FD4A
:101E2000043E35440446B5FBF6F5F0B14FF480733B
:101E3000EDB28380C680013D076081464FF0000807
:101E4000A84512D23846FFF77FFD064648B16379B0
:101E50000133637108F10108C9F800000760814689
:101E6000EEE72046FFF7BFFF34462046BDE8F88383
:101E700001210430FFF733BD10B5012104460430C1
:101E8000FFF739FDC0B220B92046BDE81040FFF78A
:101E9000AABF10BD1FB503920022009203AAFFF74C
:101EA0005DFF05B05DF804FB1FB5039201220092AF
:101EB00003AAFFF753FF05B05DF804FB8368002217
:101EC0005A60C3E904229A60DA601A60704770B5FC
:101ED000446806460D46206818B1B36829469847FD
:101EE00018B923682B60256070BD2468F3E7436848
:101EF000186808B102681A6070474368186870472C
:101F00004368186800B97047884203D102681A60B4
:101F10000120704703460068F4E700001FB503780E
:101F20008DF800304368019383688DF80830C368EA
:101F3000054A0393054B684653F8213052F82110A7
:101F4000984705B05DF804FBF4060020FC0600206D
:101F50001FB503788DF800304368019383688DF8CE
:101F60000830C368054A0393054B684653F821308F
:101F700052F82110984705B05DF804FBF4060020E4
:101F8000FC060020F0B5194B90F800C0DFF86CE0BB
:101F900043F82C20164B16460A6943F82C204B7F39
:101FA0000EF80C300C4607460FCC89B06D460FC5B5
:101FB00094E80F0085E80F003B78CDF810C01EF8BC
:101FC00003304BB1002E0B4A694608BF3246381D1C
:101FD00000F096FD09B0F0BD002E074A694608BF23
:101FE000324607F10C0000F04FFBF3E7FC0600203F
:101FF000F40600201D1F0000511F000004070020F0
:1020000000F1804000F5C040002382B00360036807
:102010000193019B02B0704703681F2B83BF03F03D
:102020001F03036001484FF0A040704700030050B9
:1020300007B5019001A8FFF7EFFF019B00EB8300BC
:10204000D0F8003723F44033C0F80037D0F8003719
:1020500043EA0141C0F8001703B05DF804FB00003B
:10206000054B4FF0FF32072843F8202084BFC018EB
:1020700080F85820704700BF0807002038B51E4C74
:1020800094F86A30ABBB4FF6FF71FF205A09012A62
:102090000CBF0A464FF0FF3203F01F05EA40D2079B
:1020A00048BFE21803F1010348BF82F83000302B2B
:1020B000ECD10021C8B20131FFF7D2FF0C29F9D1D0
:1020C000062200210D4801F07DFB0D4BC02283F854
:1020D000062340221A604FF4BE70FFF791FF094BB0
:1020E0004FF00042C3F80423012384F86A30002033
:1020F00038BD0820FCE700BF080700206C0700205F
:1021000000E100E000600040034B93F86A000038F3
:1021100018BF0120704700BF08070020F7B53D4FEA
:102120003B18044693F93030002B71DA8B78C3F3F7
:102130004003002B0BBF082500250C2008208542FA
:1021400002D1042003B0F0BD57F82560013647D115
:1021500038196EB247F8252080F8306013B97B1922
:1021600083F858408B785A071AD4D8073AD501A873
:102170000194FFF751FF019B00EB8300D0F800377B
:1021800023F00203C0F800372348E20804F0070CEC
:10219000012303FA0CF310F802C043EA0C03835442
:1021A00088780B7810F0020028D0AD0005F180454A
:1021B00005F5C0452402D5F8102522F44F3222F44B
:1021C0004072C5F810251B04D5F8102504F47C5482
:1021D00003F440331C431443C5F810450020B1E715
:1021E0000135ACE701A84A780194FFF715FF019B80
:1021F00003F5E073920040F82320C5E7083E47FA54
:1022000086F797F8604044EA831387F8603099E7CF
:10221000082097E7080700206C07002073B5244DBD
:102220002E18044696F93020072A1DDD083A45FA93
:1022300082F595F860309B09032B10D1019001A81D
:10224000FFF7EAFE019BD0F81015D94001F001011B
:102250000231204602B0BDE87040FFF7E9BE012B15
:102260000CBF02210321F4E7D3B2072B1DD8930042
:1022700003F1804303F5C043D3F8100540F001009B
:10228000C3F8100502F1400040B2800080B2FFF7B1
:10229000B7FE51B196F9303055F823302BB10123F8
:1022A00003FA02F2034BC3F8042302B070BD00BF6F
:1022B000080700200060004007B5019001A8FFF763
:1022C000ABFE019BD0F81005D84000F0010003B030
:1022D0005DF804FB2DE9FF470024CDE90244584D89
:1022E0004FF48072012102F1804303F5C04390B2A4
:1022F0001B68012B06D1D5F804330B4202D0FFF73F
:102300007FFE0C430432B2F5907F4FEA4101EAD1DF
:102310004B4BD3F87C31012B11D14FF4BE70FFF73A
:102320006FFE4FF0A04344F00044D3F82025029202
:10233000C3F82025D3F820280392C3F82028E3B25D
:10234000D3B1404F00250126344210D0AB0003F139
:10235000804303F5C043D3F81005D3F8101557F8A0
:10236000253023B1C1F30141C0F305209847013561
:10237000082D4FEA4606E7D1002C59DA314D324C90
:10238000324E4FF00008012716F9013B5A1C3CD091
:10239000C3F3C20104A801445FFA83F911F8081CD1
:1023A00003F03F0203F0070307FA03F319422CD0AE
:1023B00001A80192FFF730FE019B03F5E07350F88E
:1023C0002330C3F3014ABAF1020F0CBF03210221EB
:1023D0001046FFF72DFE01A80192FFF71DFE019B9D
:1023E00007FA03F3C0F82035AB1893F9303055F8ED
:1023F000233053B14FEA9911032904D0BAF1020FE7
:1024000019D1012901D11046984708F10108B8F106
:10241000040FB9D14FF0A043D3F820250292C3F89E
:102420002025D4F820350393C4F820351343A7D1D1
:1024300004B0BDE8F087BAF1030FE6D10229E1E765
:1024400000600040080700200003005068070020DB
:10245000014B1B68184700BF7407002038B50B4BB1
:1024600098420C4601D0002038BD0020FFF74AF802
:10247000074B1D7915B901221C601A710020FFF766
:1024800043F8002DEFD01120EEE700BF0020004000
:1024900074070020034B984201BF034B00221A60CF
:1024A0001A71704700200040740700200023435039
:1024B00082B043580193019B02B070470A4610B5A1
:1024C0004FF48E71FFF7F2FF136A9168C95C136ACB
:1024D00001331362C0F81C1510BD8B690A4610B594
:1024E0004FF4847123B9FFF7E1FFD0F8183510BD20
:1024F000FFF7DCFF536AD168D0F81805C854536A57
:1025000001335362F3E700001FB501238DF800305B
:10251000044BCDE90110D3E900126846904705B09D
:102520005DF804FB7C07002030B54D4DD5F8043331
:102530009A0585B051D5D5F82431002B4DD04FF4F4
:1025400092712846FFF7B2FF4FF40173C5F80833C4
:10255000444B93F829200AB901226A6040490222BB
:102560008DF80020D1F88024C1F8802403929A6964
:102570000292DA6801920022C3E906226846D3E992
:10258000001290473648D0F81C315BB1354A51698A
:10259000136A99424DD992F82830002B49D111463F
:1025A000FFF78CFF2E48D0F84431002B56D04FF463
:1025B000A271FFF77BFF2B4B93F829200AB1012270
:1025C00002609A69002A49D0586AD96800229A6143
:1025D00005B0BDE83040FFF797BFD5F804335B077F
:1025E000D0D5D5F80831002BCCD01E4C1C48214644
:1025F000FFF773FF636AA2699A42C3D1E369E16896
:102600004BB1A3612369E3600023606AE361636205
:10261000FFF77AFFB6E794F829300BB901236B6016
:102620000F4B4FF40172C3F808230023606AA361C3
:10263000EEE70B484FF48E71FFF738FF5369002B1C
:10264000B0D051690291002391688DF8003001915A
:1026500053616846D2E900139847A3E705B030BD3F
:10266000002000407C0700201F2886BF00F01F00CC
:10267000044B4FF0A04300F5E070022243F8202005
:10268000704700BF000300502DE9F843604D90F8FB
:1026900004802C2303FB0853064693F82A300C468B
:1026A0009146002B40F0AF805A490068FFF7D6FEF4
:1026B0000746002840F0A9802268531C10D01F2A2A
:1026C00087BF554902F01F0313464FF0A041012078
:1026D000984003F5E073C1F80805032041F8230092
:1026E0006168481C0DD01F298BBF01F01F030B46EA
:1026F00049484FF0A04003F5E0734FF0000C40F85C
:1027000023C03068A369C0F8243594F814C0637DF1
:10271000BCF1010F4CEA0303C0F86C35C0F8141586
:10272000C0F80C252BD1A368591C0DD01F2B8BBFD3
:1027300003F01F021A4638494FF0A04102F5E0723B
:102740004FF0000C41F822C0E1684A1C13D01F2949
:1027500087BF314A01F01F0C8C464FF0A0424FF06A
:10276000010E0EFA0CFE0CF5E07CC2F808E54FF005
:10277000030E42F82CE0C0F80815C0F810352C22E2
:1027800002FB08F2AB18C3F804902369AB50B9F10F
:10279000000F20D04FF48E71247FFFF787FE4FF497
:1027A000A2713068FFF782FE32681C4BC2F8043316
:1027B000130B42F307326101002AC9B21EDB18482D
:1027C000841884F800130121520903F01F0301FA51
:1027D00003F340F8223033680422C3F800252C2389
:1027E00003FB08530022C3E9062283F829205A611B
:1027F000012283F82A203846BDE8F883094A03F00D
:102800000F03D154E7E70827F5E71127F3E700BFE7
:102810007C070020292500000003005080000200F2
:1028200000E100E014ED00E02DE9F04103680579D6
:10283000284C0022C3F800252C2202FB0542014649
:102840005268A2B1244AC3F808231A0B43F3073392
:10285000002B0CDB02F01F005B09012282402033B9
:102860001E4840F82320BFF34F8FBFF36F8F0B68D4
:10287000D3F80C05D3F81485D3F80865D3F8107590
:102880004FF0FF329042C3F81425C3F80C25C3F86B
:102890000825C3F8102501D0FFF7E6FEB8F1FF3F89
:1028A00002D04046FFF7E0FE7A1C02D03846FFF720
:1028B000DBFE731C02D03046FFF7D6FE0868FFF738
:1028C000E9FD2C2303FB0544002384F82A306360D0
:1028D000BDE8F0817C0700208402020000E100E0F6
:1028E0000279044B2C2101FB02335869003818BFD0
:1028F000012070477C0700202DE9F84F064690F82C
:10290000048089469246FFF7EBFF044600283CD13D
:10291000204F2C2508FB057B4FF48E71CBF814A0BB
:10292000CBF80890CBF820008BF828003068FFF730
:10293000BDFD3068012383605946FFF7BFFDDBF81A
:1029400004305D461BBB3068DBF814402B6A9C42A8
:1029500011D83368D3F81C21002AFBD00122DA6099
:1029600000202C2303FB087700237B61BDE8F88F50
:1029700095F828303BB9D0F81C31002BF8D05946D7
:10298000FFF79CFDE2E70F20EBE71120EEE7204682
:10299000ECE700BF7C0700200023435082B043587F
:1029A0000193019B02B070471FB501238DF80030E1
:1029B000044BCDE90110D3E900126846904705B0F9
:1029C0005DF804FBA80700207FB5434AD2F82461D4
:1029D000002E60D010464FF49271FFF7DDFF022306
:1029E0008DF80030D2F88034C2F880340393D2F8E6
:1029F0003C350293394BDA6801920022C3E9062282
:102A00006846D3E9001290473348D0F8443173B197
:102A10004FF4A271FFF7C0FF304B9A693AB1002220
:102A2000C3E90622D968D0F83C05FFF7BDFF2A4864
:102A3000D0F82031ABB14FF49071FFF7ADFF012317
:102A4000C360264B5A6962B1D0F84C15029100223E
:102A500099688DF8002001915A616846D3E9001207
:102A600090471D48D0F858319BB14FF4AC71FFF737
:102A700093FF1A4B5A6962B1D0F84C1502910022AB
:102A800099688DF8002001915A616846D3E90012D7
:102A9000904704B070BDD2F81031002BB4D04FF481
:102AA00088711046FFF778FF0C4BD2F83C05996906
:102AB0008842A9D1DC69D96864B1D2F8005225F006
:102AC0002005C2F800521A699C61DA60DE61FFF7E6
:102AD0006BFF99E79C61FAE700200040A8070020FF
:102AE0001F2886BF00F01F00044B4FF0A04300F5E5
:102AF000E070022243F82020704700BF000300501E
:102B00002DE9F843664E90F80480242303FB086304
:102B1000044693F820300D469146002B40F0BC80CF
:102B200060490068FFF79AFC0746002840F0B6802D
:102B300029684B1C10D01F2987BF5B4A01F01F0377
:102B40000B464FF0A0420120984003F5E073C2F815
:102B50000805032042F823006A68501C0DD01F2A84
:102B60008BBF02F01F0313464F484FF0A04003F500
:102B7000E0734FF0000C40F823C02068AB69C0F848
:102B8000243595F814C06B7DBCF1010F4CEA0303AA
:102B9000C0F86C35C0F80C15C0F814252BD1AB6803
:102BA000591C0DD01F2B8BBF03F01F021A463E4944
:102BB0004FF0A04102F5E0724FF0000C41F822C046
:102BC000E9684A1C13D01F2987BF374A01F01F0C40
:102BD0008C464FF0A0424FF0010E0EFA0CFE0CF5A1
:102BE000E07CC2F808E54FF0030E42F82CE0C0F894
:102BF0000815C0F81035242202FB08F2B318C3F8F8
:102C000004902B69B350B9F1000F2FD04FF48871A5
:102C10002A7FFFF7C1FE20684FF49071FFF7BCFEDA
:102C200020684FF49271FFF7B7FE20684FF4A2714D
:102C3000FFF7B2FE4FF4AC712068FFF7ADFE2368DA
:102C40001A49C3F80413190B43F307335201002B3D
:102C5000D2B21CDB1648C51885F8002301225B0997
:102C600001F01F0102FA01F140F823102368082245
:102C7000C3F80025242303FB08660023C6E90633B6
:102C80007361012386F820303846BDE8F883094B8C
:102C900001F00F015A54E9E70827F5E71127F3E798
:102CA000A8070020C92900000003005010034200BB
:102CB00000E100E014ED00E02DE9F0413D4D067922
:102CC0000468242303FB065302465B68ABB13A4B0E
:102CD000C4F8083344F30733002B4FEA14310CDBFC
:102CE00001F01F005B09012181402033334840F887
:102CF0002310BFF34F8FBFF36F8FD4F8003223F050
:102D00002003C4F80032242303FB06539B6933B12C
:102D10004FF4A2712046FFF73FFE012363604FF49A
:102D2000AC712046FFF738FE0123E360242303FB48
:102D30000653D4F858110029FBD0996919B1D4F879
:102D400044110029F5D00023C4F800351368D3F8E6
:102D50000C05D3F81485D3F80815D3F810754FF087
:102D6000FF329042C3F80C25C3F81425C3F8082598
:102D7000C3F8102501D0FFF7B3FEB8F1FF3F02D032
:102D80004046FFF7ADFE7A1C02D03846FFF7A8FE9A
:102D90004B1C02D00846FFF7A3FE2046FFF77AFB44
:102DA000242303FB0655002385F820306B60BDE823
:102DB000F08100BFA80700201003420000E100E0FE
:102DC0000279044B242101FB02335869003818BFF3
:102DD00001207047A807002001F06043B3F1005FB5
:102DE0002DE9F0470646884692463BD190F804907C
:102DF000FFF7E6FF0446002836D11D4F3068242532
:102E000005FB09754FF49071C5F814A0C5F808804A
:102E1000FFF7C2FD4FF4AC713068FFF7BDFD3368BA
:102E20006A69A968C3F84415C3F8482501229A6065
:102E30006A68DAB9D3F82021D3F858011AB9002802
:102E4000F8D00F2007E00028FBD10122DA60D3F888
:102E50005821002AFBD0242303FB097700237B6140
:102E6000BDE8F0871020FBE71120F9E72046F7E7DF
:102E7000A80700200220FDF797BF00002DE9F047CA
:102E800080460D46FDF7AAFF0328044610D8012D01
:102E900010D0022D30D05DB91A48FEF74CFA1A4B0B
:102EA00004EB440213449D78184B1B5DAB4219D0D0
:102EB000BDE8F087144E00EB4003F218F55C537840
:102EC000470053B1DFF84C900E484A464FF480411A
:102ED000FEF719FA08B989F8008027443E440B4BE5
:102EE000B2781A55002DE3D0094B1B68002BDFD0B8
:102EF0002846BDE8F047184700EB40040248044468
:102F00006578EFE7F007002030080020490800202E
:102F100044080020CC07002000780221FFF7AEBF54
:102F200008B5094B1B7853B10020FDF70BFF0120BA
:102F3000FDF708FFBDE808400320FDF703BFBDE82B
:102F40000840FDF713BF00BFCD070020F8B57A4C4D
:102F5000237805461BB100232370FFF7E1FF172DEF
:102F600000F28780DFE805F00C1717425364757F85
:102F7000878C878C949999999999C3C8D0D8E3E3A1
:102F8000FFF7CEFF6D48FEF7D6F96D4B00220446E1
:102F90001A702046F8BD0020FDF7ACFEF0B100200D
:102FA000FDF7D0FE022D0CBF4FF4E1644FF47A64BC
:102FB000634B1D7000254FF400464FF47A7029468C
:102FC0004FF4FA620023E4FB060100F00DFB2A46F1
:102FD0000146BDE8F8405948FEF795B9FDF79EFE59
:102FE000022D0CBFC8244FF4C874E1E70020FDF7A0
:102FF00081FE40B10020FDF7A5FE4FF44874504B10
:1030000003221A70D6E7FDF789FEC824F7E70020EF
:10301000FDF770FE38B10020FDF794FE4FF47A649E
:10302000474B0422EDE7FDF779FE4FF4C874F7E74C
:103030000020FDF75FFE48B10020FDF783FE404B06
:1030400005221A7040F6CD410022C2E7FDF766FE68
:10305000F5E70020FDF7A8FE394B06221A70002282
:1030600040F26661B5E70020FDF758FE344B0722B9
:103070001A7000248DE701202070FDF795FEEEE721
:1030800001202070FDF790FE00224FF40051A0E7D0
:10309000FDF77BFE2A4B0C22EAE72A482A4EFEF770
:1030A0004AF9D5F1110504461CD0D8B9012D13D029
:1030B000C820454321464FF400474FF47A704FF43F
:1030C000FA620023C5FB070100F08EFA2246014692
:1030D0001C48FEF718F904460220FDF71FFE0123E5
:1030E000337056E70220FDF72DFE0023F8E7FFF7C7
:1030F00017FF134B1222BBE7FFF712FF0020FDF76B
:103100000DFE0F4B1322B3E7FFF70AFF0120FDF777
:1031100005FE0B4B1422ABE7FFF702FF0020FDF783
:10312000FDFD0120FDF7FAFD054B1522A0E7FDF797
:103130002CFE034B1D709CE7400800201008002067
:1031400048080020D0070020CD070020044B1B6852
:10315000DB0703D5034B1878FFF7F8BE704700BFB5
:103160003C08002048080020044B1B6813F00103B2
:1031700001D0FFF7EBBE1846704700BF3C080020A7
:1031800038B51C4B18601C4B10F002040546196042
:103190001AD01A4B1A480E221A700F22DA70102217
:1031A0009A7111225A72042140F23332FDF742FF24
:1031B000044648B9FDF796FF044628B90146114A6E
:1031C0001148FEF795F80446EB0711D50120FDF7ED
:1031D00017FE6CB921460D4A0D48FEF789F80446E2
:1031E00030B9BDE838400B4A0B480121FEF780B8E2
:1031F000204638BD3C08002044080020300800204C
:10320000C83A0000192F0000EC3A00004D310000D0
:10321000F03A0000752E0000E83A0000144B154902
:103220000722C3F808250022C3F81025C3F8241587
:1032300001F10431C3F828150F49C3F81C150F49D3
:10324000C3F820150121C3F83015C3F814250C4A22
:10325000C3F818250222C3F834254FF6FF72C3F8CD
:103260003C25084AC3F83825074AC3F804257047A7
:1032700000100040F0F1F2F3971907143119081605
:1032800001010400211001004D0800204FF080438F
:103290000022C3F8002101221A60D3F80021002A7D
:1032A000FBD001220021C3F81825C3F804119A604D
:1032B0004FF08042D2F80431002BFBD07047000061
:1032C000144B0022C3F8002101225A60D3F80021D8
:1032D000002AFBD00022C3F80C2101229A600D4B7A
:1032E000D3F80C21002AFBD0D3F80024012A08BF10
:1032F00009494FF0000208BF0878C3F8102118BF31
:10330000104601221A61034AD2F81031002BFBD07B
:10331000704700BF001000404D0800202DE9F0412B
:10332000FFF7B4FFFDF7B2FF08B1FDF7F1FE4FF470
:1033300080410020FDF7E4F908B1FDF7E9FEFDF753
:1033400023F900210120FFF71BFF08B1FDF7E0FE84
:103350001220FFF763FF1B4CFFF706FF1A4B1B49B8
:10336000E41AE408240444F0030405462046FDF76B
:103370005DFB17492046FDF759FB15B12846FDF7BF
:10338000C7FEFDF70DFA0028FBD1124FDFF8488089
:10339000FFF796FF06460A20FFF7E6FE3946054688
:1033A0002046FDF743FB15B12846FDF7B1FE324636
:1033B00041462046FDF73EFBFDF7F2F90028FBD120
:1033C000E6E700BFAC3800008C380000F43A00009B
:1033D000143B00002A3B00003E3B00004FF08053AE
:1033E000D3F83001A0F1080358425841704700005B
:1033F0004FF08053D3F83021082A06D1D3F8343166
:10340000032B02D8024AD05C70470020704700BFEF
:10341000603B000008B5FFF7E1FF40B14FF080438B
:103420000022C3F80C21C3F81021C3F83825FFF798
:10343000D5FF002846D04FF08052614BD2F80414DB
:10344000C3F82015D2F80814C3F82415D2F80C14C8
:10345000C3F82815D2F81014C3F82C15D2F8141498
:10346000C3F83015D2F81814C3F83415D2F81C1468
:10347000C3F84015D2F82014C3F84415D2F8241428
:10348000C3F84815D2F82814C3F84C15D2F82C14F8
:10349000C3F85015D2F83014C3F85415D2F83414C8
:1034A000C3F86015D2F83814C3F86415D2F83C1488
:1034B000C3F86815D2F84014C3F86C15D2F8442448
:1034C000C3F87025FFF794FF18B13E4B3E4AC3F88E
:1034D0008C26FFF78DFF18B13C4BFB22C3F8182553
:1034E000FFF786FF70B14FF080414FF08053D1F865
:1034F000E42ED3F8583222F00F0203F00F031343E7
:10350000C1F8E43EFFF774FF20B1314B4FF4007275
:10351000C3F84026FFF762FF48B14FF08043D3F86D
:103520000024D20744BF6FF00102C3F80024294AE7
:10353000D2F8883043F47003C2F88830BFF34F8F5D
:10354000BFF36F8F4FF01023D3F80022002A03DB64
:10355000D3F80432002B2EDA1F4B0122C3F80425C6
:10356000D3F80024002AFBD04FF010221221C2F819
:103570000012D3F80024002AFBD04FF010231222AF
:10358000C3F80422144BD3F80024002AFBD00022F5
:10359000C3F80425D3F80024002AFBD0BFF34F8FD3
:1035A0000C490E4BCA6802F4E0621343CB60BFF3D0
:1035B0004F8F00BFFDE70A4B0A4A1A6008BD00BFE3
:1035C00000C00040005000404881030000F000406F
:1035D0000090024000ED00E000E001400400FA0528
:1035E000240000200090D00353EA020C61D02DE9A2
:1035F000F04BB3FA83F51E0007BFB2FA82F502FA68
:1036000005F403FA05F41646C5F120051EBF22FA9B
:1036100005F73C43203556EA044C4FEA144418BFE2
:103620000134A3464FF00009C846904271EB030CE9
:1036300039D3094207BFB0FA80F700FA07F6B1FAAA
:1036400081F701FA07F6C7F120071EBF20FA07FC31
:1036500046EA0C062037B6FBFBFC7F1B103F07F049
:103660001F04C4F120060CFA04F42CFA06F644BF39
:1036700034460026202FA4BF2646002454EA060C18
:1036800008BF012418EB040849EB0609A4FB027CDF
:10369000C01B06FB02CC04FB03CC71EB0C01904277
:1036A00071EB030CC5D20B46024649464046BDE8C5
:1036B000F08BB2FBF3F200007F2805D8034B185CB7
:1036C000034B5B5C1840704700207047703B000064
:1036D000F03B0000A0F16103192B98BF2038704720
:1036E000A0F14103192B98BF203070477F2805D8DF
:1036F000034B185C034B5B5C18407047002070471D
:10370000703B0000F03B0000A0F16103192B98BF53
:1037100020387047A0F14103192B98BF2030704723
:103720007F299ABF017001206FF02E0070475AB1B7
:103730000A787F2A0AD800B1026000211960596016
:10374000501A18BF01207047002070476FF02E00FC
:103750007047000008B5034B5B689B681B6898477F
:1037600008BD00BF2800002008B50921FFF7F2FFBF
:1037700008BD844640EA010313F0030F18D18446C4
:10378000202A0BD32DE9F007B1E8F807A0E8F807E5
:10379000A2F12002202AF7D2BDE8F007042A07D3BD
:1037A00051F8043B40F8043BA2F10402042AF7D28A
:1037B000002A05D011F8013B00F8013B013AF9D18C
:1037C000604670478446002A2DD010F0030F04D0C5
:1037D00000F8011B013A26D0F7E7C9B241EA0121FE
:1037E00041EA0141202A12D3A2F120022DE9F0037F
:1037F0000B460C460D460E460F4688468946A0E805
:10380000FA03203AFBD2BDE8F00320320BD0042AA1
:1038100005D340F8041B043A05D0042AF9D200F875
:10382000011B013AFBD16046704700F1010110F025
:10383000030F11D010F8012B002A23D010F0030F32
:103840000AD010F8012B002A1CD010F0030F03D06F
:1038500010F8012B002A15D02DE970004FF001322D
:103860004FF0803350F8044BA4EB020525EA040521
:103870001D4000D1F6E7A0F1040070BC10F8012B48
:0A388000002AFBD1A0EB0100704705
:10388C00AF3A000000000000B63A00000000000053
:10389C00BA3A000000000000BF3A0000000000002F
:1038AC003E39000000000303183A0000000000003D
:1038BC00413A000000000000A63A000000000000A1
:1038CC0010390000000000001C390000140000201A
:1038DC0080000020480100205001002088000020BA
:0438EC0018000000C0
:1038F000FFFFFFFFFFFFFFFFFFFFFFFFFFFFFFFFD8
:1039000000000000000000000000D60106010000D9
:10391000F104000055050000A104000075617274F7
:103920005F6C6F675F6261636B656E6400426163C9
:103930006B656E647320666C757368656400617096
:1039400070000000700500207F000000F0050020DE
:103950001B5B313B33316D0025734C6F6773206403
:10396000726F70706564202825642925730D0A0024
:103970001B5B306D002573003C25733E2025733A98
:103980002000202530327800202020007C00256394
:10399000001B5B313B33306D001B5B313B33326DC1
:1039A000001B5B313B33336D001B5B313B33346DAC
:1039B000001B5B313B33356D001B5B313B33366D98
:1039C000001B5B313B33376D007761726E696E6748
:1039D00000696E666F00646562756700703900008B
:1039E000913900005039000099390000A1390000D8
:1039F000A9390000B1390000B9390000C13900000F
:103A0000000000002E3A0000C9390000D139000042
:103A1000D63900000D0E0F106170705F62757474FE
:103A20006F6E000010060020466174616C206572A4
:103A3000726F720053797374656D2072657365746B
:103A4000006170705F74696D6572000001000600AE
:103A5000000000005C060020991100005254432031
:103A6000696E7374616E636520616C7265616479FF
:103A700020696E697469616C697A65642E005254BC
:103A8000433A20696E697469616C697A65642E00D5
:103A90000338FDD870473031323334353637383952
:103AA000414243444546736F72746C6973740047B6
:103AB00050494F54450050525300554152540055FF
:103AC00041525445000000000B0003007D2E000011
:103AD0000C0003007D2E0000180003007D2E000066
:103AE000190003007D2E0000D0070020F007002001
:103AF00010080020526164696F2072656365697601
:103B00006572206578616D706C6520737461727484
:103B100065642E005761697420666F722066697251
:103B20007374207061636B6574005061636B6574BE
:103B300020776173207265636569766564005468F7
:103B40006520636F6E74656E7473206F6620746891
:103B500065207061636B616765206973202575005E
:103B60000100000043000000504F5349580000007E
:103B700020202020202020202068282828282020DD
:103B80002020202020202020202020202020202035
:103B900048101010101010101010101010101010ED
:103BA000848484848484848484841010101010108D
:103BB00010818181818181010101010101010101E6
:103BC000010101010101010101010110101010109A
:103BD00010828282828282020202020202020202B7
:103BE000020202020202020202020210101010205F
:103BF000000703200417020108571040800000004E
:103C0000643B0000683C00007C3D000053756E0082
:103C10004D6F6E00547565005765640054687500FB
:103C20004672690053617400000000004A616E0032
:103C3000466562004D617200417072004D6179000D
:103C40004A756E004A756C004175670053657000D7
:103C50004F6374004E6F76004465630000000000FF
:103C6000414D00504D000000A03D00009C3D000073
:103C70009C3D00009C3D00009C3D00009C3D0000E0
:103C80009C3D00009C3D00009C3D00009C3D0000D0
:103C9000FFFFFFFFFFFFFFFFFFFFFFFFFFFF000032
:103CA000DC3C00000C3C0000183D00002C3C0000F7
:103CB000603C0000C03C0000703D0000CC3C0000B7
:103CC000256D2F25642F2579000000002561202512
:103CD00062202565202554202559000053756E6407
:103CE0006179004D6F6E646179005475657364612C
:103CF00079005765646E6573646179005468757204
:103D00007364617900467269646179005361747506
:103D100072646179000000004A616E756172790019
:103D20004665627275617279004D61726368004127
:103D30007072696C004D6179004A756E65004A7554
:103D40006C79004175677573740053657074656DA7
:103D5000626572004F63746F626572004E6F7665C4
:103D60006D62657200446563656D62657200000096
:103D700025483A254D3A255300000000B936000089
:103D8000D5360000E1360000ED36000009370000AE
:103D900015370000213700002F3700000000000019
:023DA0002E00F3
:103DA400000000000020004000000000002000404F
:103DB4000000000000000000FF00000000100140AF
:103DC400110004000090D003003C0000003C0000FF
:0C3DD400003C0000003C0000003C00002F
:040000030000037581
:00000001FF
