:1000000000000420750300005D0300005F03000092
:1000100061030000630300006503000000000000AE
:100020000000000000000000000000006703000066
:1000300069030000000000006B0300006D03000076
:100040006F0300006F030000C51500006F03000080
:100050006F0300006F030000491400006F030000ED
:100060006F0300006F0300006F0300006F030000C8
:100070006F0300006F0300006F0300006F030000B8
:100080006F030000010D00006F0300006F0300000C
:100090006F0300006F0300006F0300006F03000098
:1000A0006F0300006F0300006F0300006F03000088
:1000B0006F0300006F03000000000000000000005C
:1000C0006F0300006F0300006F0300006F03000068
:1000D0006F0300006F0300006F0300006F03000058
:1000E0006F0300006F0300006F03000000000000BA
:1000F000000000006F030000000000006F0300001C
:1001000000000000000000000000000000000000EF
:1001100000000000000000000000000000000000DF
:1001200000000000000000000000000000000000CF
:1001300000000000000000000000000000000000BF
:1001400000000000000000000000000000000000AF
:10015000000000000000000000000000000000009F
:10016000000000000000000000000000000000008F
:10017000000000000000000000000000000000007F
:10018000000000000000000000000000000000006F
:10019000000000000000000000000000000000005F
:1001A000000000000000000000000000000000004F
:1001B000000000000000000000000000000000003F
:1001C000000000000000000000000000000000002F
:1001D000000000000000000000000000000000001F
:1001E000000000000000000000000000000000000F
:1001F00000000000000000000000000000000000FF
:10020000354936480A1A02D0072291438D463449AF
:1002100034480A1A06D00722914381F30988022242
:1002200082F3148830483149314A00F044F83148AB
:100230003149324A00F03FF831483249324A00F041
:100240003AF832483249334A00F035F832483349F7
:10025000334A00F030F833483349344A00F02BF881
:1002600033483449344A00F026F8344834490022EF
:1002700000F02CF833483449002200F027F83348C6
:100280003349091A082902DB002202604160314A21
:1002900090471F481F49884205D00268043003B4C4
:1002A000904703BCF7E700208646EC46002000217B
:1002B000294A9047FEE7884207D0521A05D00378B2
:1002C00001300B700131013AF9D17047884202D0F8
:1002D00002700130FAE770470000042000E00320BC
:1002E0000000042000000420E82800000000002096
:1002F00038000020D0030000D0030000C824000014
:10030000E828000000000020000000202C2500004C
:100310002C2500002C2500002C2500002C25000099
:100320002C2500002C2500002C250000E6280000CC
:10033000202900003800002038000020380000206C
:1003400054060020540600205406002054060020C5
:10035000542600209D03000031210000FEE7FEE747
:10036000FEE7FEE7FEE7FEE7FEE7FEE7FEE7FEE765
:1003700000F002B8FFF7FCBF0F484FF007018843B9
:1003800085460E4880470E48016841F470010160BF
:10039000BFF34F8FBFF36F8FFFF732BF09480A4992
:1003A0000A4A884207D0521A05D0037801300B70F0
:1003B0000131013AF9D17047000004208921000081
:1003C00088ED00E02C250000000000200000002047
:1003D000F0B595B01D46164608460C4600F06CFF79
:1003E0001A9B0D93CDE9086500252B46082205A927
:1003F00020460A958DF82C500C9500F079FF079B4C
:100400000293069B03939DF814308DF8115003F06E
:100410000302012A1DD1BDF81420059DC3F3C203B8
:10042000C2F383168DF81030B20008230EA92046BF
:1004300000F05EFFC5F3952508AB0093324602AB92
:100440000EA9284600F042FB204600F039FF15B007
:10045000F0BD022AF8D1BDF81650C3F3C203C5F3AC
:1004600089158DF810300827082D2E4628BF08263C
:100470003B4632460EA9204600F03AFFAD1B08ABC2
:1004800002AA31460EA8374400F084FB002DEBD1C0
:10049000DAE70000014B01221A7070477900002052
:1004A0007047000070B50E4D06460FCD88B06C4603
:1004B0000FC495E80F00002E84E80F00094A0A488F
:1004C0004FF0060308BF00226946009300F04EFF7C
:1004D00008B100F0BBFB054B1E7008B070BD00BF3B
:1004E0002C250000950400000000002038000020AA
:1004F00007B5044B0093044A4023FFF769FF03B09C
:100500005DF804FB0D0500003900002038B50D48EA
:100510000D4C0E4D002323700378EB5CD2B263B117
:10052000043001F013FD08B100F090FB084B1A787D
:1005300012B12378002BFBD038BD0C3001F096FAB5
:10054000F1E700BF00000020790000208C050020AA
:100550003800002008B50848084A0378D35C3BB14E
:10056000043001F063FCBDE808400020FFF79ABFAB
:100570000C3001F013FAF6E7000000208C05002093
:10058000037813F0040216D003F00303012B03D009
:10059000022B09D0012070470A6800880232C0F39C
:1005A000831002440A60F5E70B684288023303EBCC
:1005B00092130B60EEE71046704700002DE9F04FF4
:1005C000DFF810A10F4685B00446861C00201546B2
:1005D00000F092FBDAF804203A60DAF8083003F50C
:1005E00080739B1A0AF21C470AF583690AF21448C1
:1005F000B34219D30020002D68D004F00F039B01F3
:1006000043F0050363F30F00DAF80430DAB2033283
:1006100033444AF822000020CAF8043000F06EFB90
:10062000012005B0BDE8F08F0121384600F095FBB0
:10063000484600F0AAFB404600F0A7FBDAF80800A5
:100640000090C0B203300AEB80006946FFF798FFC4
:10065000009B30BBDAB20AEB8202D16801919A1C8E
:100660000133DBB20AEB83030092D3F80CB001F044
:100670000303012B22D0022B15D08346404600F005
:1006800087FB10B1009BCAF808305946384600F085
:1006900064FBDAF80830DAF8042003F580739B1A5B
:1006A000A6E7D8B2CEE7BDF80630C3F3891303330B
:1006B0004FEA1B4B02EB93030093DFE7BDF80430D6
:1006C000C3F383134FEA1B4B1344F5E7A40544F02F
:1006D000060099E74C01002030B50A4C71B10A4A76
:1006E0000A49121BD20800239A4201D1002030BDD2
:1006F00031F82350854202D00133F5E7034654F820
:100700003300F4E7C82400000825000000000020A2
:10071000094B013903EBC000032909D8DFE801F0D8
:100720000A02040604207047007970474079704738
:100730000020704702207047C8240000034BD3E913
:100740000130C31A58425841704700BF4C01002085
:100750002DE9FF41FFF7F2FF0546002840F0E98050
:10076000754CC4F81804BFF34F8FA3680093DBB235
:10077000033304EB83006946FFF702FF009B18B1C7
:10078000D4F81824002A5AD0DAB2991C013304EBA9
:100790008202DBB204EB8303D268DB68029302F0CF
:1007A0000303022B0192009154D1BDF80630634837
:1007B000C3F38917502F3E4628BF502606F1080183
:1007C00066F38F13C1F30901ADF8063000F045FD63
:1007D0000546002800F0988000F06EFD00230822F6
:1007E00001A9284600F07AFD0099CB43DBB2013322
:1007F000C9B20331B6EB830F4FEA830204EB8101E8
:1008000025D95FFA82F80823A6EB0806284600F0EF
:1008100065FDF6B208F10803494903F0FC033246CE
:10082000284600F05BFD009B033703EB970700971A
:10083000D4F81834002B43D1D4F8106453E0626824
:100840009A4294D8A260284604B0BDE8F0810823FB
:100850003246E5E7012B57D1BDF804303748C3F3E2
:100860008311062928BF062161F38913023101F0A3
:100870000F018900ADF8043000F0EFFC05460028B8
:1008800042D000F019FD0023082201A9284600F0FB
:1008900025FD0026BDF80420C2F38312B300964262
:1008A00003F10803C4D200994A1CC9B20331009273
:1008B00004EB81010422284600F010FD0136E9E72F
:1008C000284600F0FDFCFFF739FF80F00100C5B2BB
:1008D000B9E7F3685B7923B1336829461B68304672
:1008E0009847F3681E68002EF3D1284600F0E8FC14
:1008F000304600F001FAD4F818340BB9009BA3601D
:10090000002000F0FBF9DEE7D4F8104454B90D4B99
:100910000D480E49C01AC008000440F0020000F063
:100920005DF8D0E7236820469B689847E3681C6819
:10093000ECE7002587E700BF4C01002018250000E8
:1009400058010020C8240000E824000069250000A8
:100950002DE9F34704460E46924601A901221846A6
:100960009946FFF72BFE1B4F10B3019D4FF0000877
:10097000AA1CC84508EB020123D11748002100F04A
:10098000C9F980F31000000440EA1440E4006B1C35
:1009900004F03804DBB2EDB244F0010407EB83034A
:1009A000033544EA881444EA8624D86047F8254091
:1009B0003B781BB1FFF7CCFE0028FBD102B0BDE8AD
:1009C000F087C9B207EB81015AF82830CB6008F1F3
:1009D0000108CEE74C0100206805002000231A46DC
:1009E000FFF7B6BF38B5084B0125D3F810441D708A
:1009F00004B938BDE3685D71236820465B68984799
:100A0000E3681C68F4E700BF4C01002030B5C388E0
:100A100085B004460D4633B1144A00921449154A74
:100A2000284600F0F8F9217A05291DD0637A4BB1E8
:100A3000A088FFF76DFE104B104953F82020284680
:100A400000F0E9F9227A0E4BA08853F82220039295
:100A50000021FFF741FE039A0A490346284605B0E4
:100A6000BDE8304000F0D7B905B030BD9E2500008C
:100A7000862500007E2500000C260000A32500002E
:100A800030260000A625000007B503460846197A5F
:100A9000052911D05B7A2BB1094A0A49019000F06F
:100AA000BAF901980849019000F0B5F9019803B02E
:100AB0005DF804EB00F0A4B9002AF8D0F2E700BF1B
:100AC0009E250000A32500009B2500002DE9F04392
:100AD00085B01F460C9D002395F80C902B7306469D
:100AE0000C46904629463846FFF790FFB8F1060FAE
:100AF00009D8DFE808F00412181F283340003146F7
:100B0000284600F088F9002229463846FFF7BCFF46
:100B100085F80C9005B0BDE8F08322683146284680
:100B200000F079F9EFE7D4E900233146284600F0D8
:100B300072F9E8E7A36800933146D4E90023284618
:100B400000F069F9DFE7E3680193A3680093314699
:100B5000D4E90023284600F05EF9D4E72369029324
:100B6000E3680193A36800933146D4E90023284643
:100B700000F051F9C7E76369039323690293E368BF
:100B80000193A36800933146D4E90023284600F07E
:100B900042F9B8E708292DE9F74F80460E46174677
:100BA0001C463CD8002593F80C901D73194610463E
:100BB000FFF72CFFDFF888A0DFF888B0AE4231D90C
:100BC00018F805205946204600F025F90135082D72
:100BD000F4D11949194DDFF870A0204600F01BF937
:100BE0004FF0000B5E4522D918F80B207E2A05D85D
:100BF0001046019201F00AFC019A00B92E225146DA
:100C0000204600F008F90BF1010BBBF1080FE9D108
:100C1000012221463846FFF737FF84F80C9003B0D5
:100C2000BDE8F08F5146204600F0F5F8CEE72946A2
:100C3000204600F0F0F8E6E7BA250000B8250000ED
:100C4000B6250000B0250000BC2500001FB500211E
:100C5000039001AA44F20100CDE9011100F004F86B
:100C600005B05DF804FB000038B572B6FFF7BAFEB8
:100C7000FFF76EFD0028FBD1104B114C114D1249AE
:100C8000E41AE408240444F00100FFF7A7FED5F8B5
:100C9000F030DB0700D500BE0C4944F00200FFF73E
:100CA0009DFEBFF34F8FEA68094B02F4E0621343E5
:100CB000EB60BFF34F8F00BFFDE700BFC82400000B
:100CC000E824000000ED00E04F2600005B26000055
:100CD0000400FA0572B6024A1368013313607047C4
:100CE0006C050020034A1368013B136003B962B628
:100CF000704700BF6C050020FFF7ECBFFFF7F2BFA5
:100D0000024B034A1B681068184700BF7805002093
:100D10007005002010B5034653E8000F0A4643E86B
:100D2000002494F0000FF7D110BD10B5034653E82E
:100D3000002F42EA010043E8000494F0000FF6D1CE
:100D400010BD10B5034653E8000F00EA010243E866
:100D5000002494F0000FF6D110BD10B5034653E8FF
:100D6000002F02EB010043E8000494F0000FF6D1DD
:100D700010BD10B5034653E8002FA2EB010043E875
:100D8000000494F0000FF6D110BD0121FFF7CDBF94
:100D90000021FFF7D6BF38B504460020FFF7ACFFAF
:100DA000226863681168994213D9481E106011F8CF
:100DB000013CE568218A01FB0355A36811791B1AE0
:100DC000DBB2994200D213710020FFF797FF28464B
:100DD00038BD0025F8E738B5054600200C46FFF77A
:100DE0008BFF2A681368591C1160E968641A298A04
:100DF000B4FBF1F41C70BDE838400020FFF77EBF63
:100E0000826810B504462AB14369016800699847B1
:100E10000023A36010BD0EB403B5039921B104AB48
:100E200001AA019300F076F802B05DF804EB03B07C
:100E300070470A2938B504460D4602D10D21FFF747
:100E4000F8FFA3682268591CA160D554D4E9013287
:100E50009A4204D32046BDE83840FFF7D1BF38BDE1
:100E60002DE9F84F9846DDE90A43154682460F46BC
:100E70000A464FF00109AA420FD2C14538BFC14608
:100E800013F0010B01D16CB900240126B8F1010F58
:100E90001BD908F1FF386E43F8E709F10109B2FBED
:100EA000F5F2E8E79B070ED5B8F1000F0CBF30262E
:100EB0002026A145E9D2013C31465046FFF7B9FF53
:100EC000002CF6D1E0E72026F3E7B7FBF6F39D42CE
:100ED000E1D9DFF83C80B7FBF6F3504618F8031071
:100EE00006FB1377FFF7A5FF3346AB42B6FBF5F6DB
:100EF000F1D2BBF1000F02D00CB1A14501D3BDE886
:100F0000F88F20215046013CFFF793FFF4E700BF24
:100F1000722600002DE9F74F05461746884600293E
:100F200000F03E8118F8011B49B92B7B002B00F023
:100F30003781284603B0BDE8F04FFFF761BF252990
:100F400040F0B780002698F800302D2B424608F17B
:100F5000010823D0302B24D02B2B25D000242A2B82
:100F600002F1010123D13B681A1D1B683A601C4441
:100F70000A4613782E2B26D101324FF0000A104674
:100F800010F8011BA1F1300CBCF1090F1DD80A2388
:100F900003FB0A13A3F1300A0246F0E746F001060C
:100FA000D1E746F00206CEE746F00406CBE711F89B
:100FB000013CA3F130000928DBD80A2202FB0434EB
:100FC000303C0A46CBE74FF0000A12F8011B01F053
:100FD000FB0068289046F8D0782909D86F290CD8EA
:100FE000632962D022D8252963D0582900F088804F
:100FF00098F80030002B95D197E770390829F7D879
:1010000001A353F821F000BF7B110000F10F000095
:10101000F10F000011110000F10F0000EF100000AF
:10102000F10F0000F10F000001110000642901D050
:101030006929DDD13A68D2F80090111D89EAE97278
:101040003960A2EBE9724FF0010B092A35DCD34578
:1010500038BFD3462CB1B9F1000F01DB720700D5C0
:10106000013CB30702D5BAF1000F03D0F00701D459
:101070004CBB0024B9F1000F2DDAC9F100092D2174
:101080002846FFF7D6FE06F00302022A04D1BAF181
:10109000000F01D11CBB0024CDE9004653460A22B3
:1010A00049462846FFF7DCFEA2E73B681A1D19787F
:1010B0003A602846FFF7BDFE9AE70A230BF1010BC1
:1010C000B2FBF3F2C1E7A345D4D220212846013C6C
:1010D000FFF7AFFECCE77107D5D52B21D0E7A345AD
:1010E000DAD230212846013CFFF7A3FED2E7396867
:1010F000CDE900460A1D3A6053460A220968D0E746
:1011000039680A1D3A60CDE9004653461022F5E7DA
:101110003B681A1D3A6016F00106D3F8009024D1FE
:10112000B9F1000F03D0484601F09EF90646B442DB
:101130001DD809F1FF3919F8011F00293FF458AFF4
:101140002846FFF776FEF6E728460136FFF771FEE0
:1011500019F806100029F7D1A642BFF449AF2021A3
:101160002846013CFFF765FEF6E70026F0E7202160
:101170002846013CFFF75DFED9E73B681A1D3A603F
:10118000302128461C68FFF754FE78212846FFF7D7
:1011900050FE00220823CDE900322146102280E7CC
:1011A00003B0BDE8F08F00BF2DE9F84FB0F806A0FE
:1011B0004579D2F800B09DF828900AFB05F5043D6A
:1011C00088460BEB0301A94203F1040488BFA5EB99
:1011D000030BB4FBFAF607460AFB1644C2F800B04C
:1011E0004EB9AAEB04055D4528BF5D46BBF1000F73
:1011F00004D1BDE8F88F3F68013EF1E7043408EB05
:1012000006003C442A46B9F1000F0DD02146ABEB55
:10121000050B01F000F9DA452E443F6855464FF0C2
:10122000000428BF5D46E1E701462046EFE7F8B538
:1012300046790146721E0546002393422D6803D36A
:101240000024A64202D8F8BD0133F6E70F6828460D
:10125000FFF7C1FD01343946F3E72DE9F843068A6B
:10126000CD1C0746FFF797FD043E35440446B5FB09
:10127000F6F5F0B14FF48073EDB28380C680013D86
:10128000076081464FF00008A84512D23846FFF7A4
:1012900082FD064648B163790133637108F10108A4
:1012A000C9F8000007608146EEE72046FFF7BFFF60
:1012B00034462046BDE8F88301210430FFF74DBDD8
:1012C00010B5012104460430FFF753FDC0B220B928
:1012D0002046BDE81040FFF7AABF10BD1FB503921E
:1012E0000022009203AAFFF75FFF05B05DF804FB40
:1012F0001FB503920122009203AAFFF755FF05B024
:101300005DF804FB1FB503788DF800304368019346
:1013100083688DF80830C368054A0393054B684617
:1013200053F8213052F82110984705B05DF804FBBE
:101330007C050020840500201FB503788DF800305F
:101340004368019383688DF80830C368054A0393A6
:10135000054B684653F8213052F82110984705B0E4
:101360005DF804FB7C05002084050020F0B5194BD6
:1013700090F800C0DFF86CE043F82C20164B1646BE
:101380000A6943F82C204B7F0EF80C300C460746B8
:101390000FCC89B06D460FC594E80F0085E80F00AB
:1013A0003B78CDF810C01EF803304BB1002E0B4A2D
:1013B000694608BF3246381D00F05CFC09B0F0BD3C
:1013C000002E074A694608BF324607F10C0000F0BC
:1013D00015FAF3E7840500207C05002005130000C2
:1013E000391300008C05002000F1804000F5C0405A
:1013F000002382B0036003680193019B02B0704731
:1014000003681F2B83BF03F01F03036001484FF0E5
:10141000A04070470003005007B5019001A8FFF7F6
:10142000EFFF019B00EB8300D0F8003723F440333B
:10143000C0F80037D0F8003743EA0141C0F8001780
:1014400003B05DF804FB00002DE9FF470024CDE95F
:101450000244584D4FF48072012102F1804303F59C
:10146000C04390B21B68012B06D1D5F804330B4260
:1014700002D0FFF7B9FF0C430432B2F5907F4FEA78
:101480004101EAD14B4BD3F87C31012B11D14FF400
:10149000BE70FFF7A9FF4FF0A04344F00044D3F81B
:1014A00020250292C3F82025D3F820280392C3F800
:1014B0002028E3B2D3B1404F00250126344210D09A
:1014C000AB0003F1804303F5C043D3F81005D3F814
:1014D000101557F8253023B1C1F30141C0F30520A1
:1014E00098470135082D4FEA4606E7D1002C59DA16
:1014F000314D324C324E4FF00008012716F9013BB6
:101500005A1C3CD0C3F3C20104A801445FFA83F91A
:1015100011F8081C03F03F0203F0070307FA03F376
:1015200019422CD001A80192FFF76AFF019B03F535
:10153000E07350F82330C3F3014ABAF1020F0CBF35
:10154000032102211046FFF767FF01A80192FFF770
:1015500057FF019B07FA03F3C0F82035AB1893F946
:10156000303055F8233053B14FEA9911032904D094
:10157000BAF1020F19D1012901D11046984708F19B
:101580000108B8F1040FB9D14FF0A043D3F82025DA
:101590000292C3F82025D4F820350393C4F82035EF
:1015A0001343A7D104B0BDE8F087BAF1030FE6D129
:1015B0000229E1E700600040900500200003005090
:1015C000F0050020014B1B68184700BFFC050020F8
:1015D00038B50B4B98420C4601D0002038BD002096
:1015E000FFF78AFB074B1D7915B901221C601A71A0
:1015F0000020FFF783FB002DEFD01120EEE700BFA6
:1016000000200040FC050020034B984201BF034B23
:1016100000221A601A71704700200040FC0500206B
:101620000023435082B043580193019B02B070479E
:101630000A4610B54FF48E71FFF7F2FF136A9168F6
:10164000C95C136A01331362C0F81C1510BD8B69A5
:101650000A4610B54FF4847123B9FFF7E1FFD0F8C3
:10166000183510BDFFF7DCFF536AD168D0F81805B4
:10167000C854536A01335362F3E700001FB50123D6
:101680008DF80030044BCDE90110D3E90012684613
:10169000904705B05DF804FB0406002030B54D4DC1
:1016A000D5F804339A0585B051D5D5F82431002BEF
:1016B0004DD04FF492712846FFF7B2FF4FF40173FB
:1016C000C5F80833444B93F829200AB901226A600F
:1016D000404902228DF80020D1F88024C1F88024EE
:1016E00003929A690292DA6801920022C3E9062203
:1016F0006846D3E9001290473648D0F81C315BB1F8
:10170000354A5169136A99424DD992F82830002B15
:1017100049D11146FFF78CFF2E48D0F84431002BF9
:1017200056D04FF4A271FFF77BFF2B4B93F8292083
:101730000AB1012202609A69002A49D0586AD96820
:1017400000229A6105B0BDE83040FFF797BFD5F899
:1017500004335B07D0D5D5F80831002BCCD01E4C14
:101760001C482146FFF773FF636AA2699A42C3D1FE
:10177000E369E1684BB1A3612369E3600023606A18
:10178000E3616362FFF77AFFB6E794F829300BB99B
:1017900001236B600F4B4FF40172C3F80823002341
:1017A000606AA361EEE70B484FF48E71FFF738FFD4
:1017B0005369002BB0D051690291002391688DF8D4
:1017C0000030019153616846D2E900139847A3E7BE
:1017D00005B030BD00200040040600201F2886BF51
:1017E00000F01F00044B4FF0A04300F5E070022210
:1017F00043F82020704700BF000300502DE9F84354
:10180000604D90F804802C2303FB0853064693F8A0
:101810002A300C469146002B40F0AF805A490068B0
:10182000FFF7D6FE0746002840F0A9802268531C27
:1018300010D01F2A87BF554902F01F0313464FF0EF
:10184000A0410120984003F5E073C1F8080503208A
:1018500041F823006168481C0DD01F298BBF01F09F
:101860001F030B4649484FF0A04003F5E0734FF0CB
:10187000000C40F823C03068A369C0F8243594F800
:1018800014C0637DBCF1010F4CEA0303C0F86C3552
:10189000C0F81415C0F80C252BD1A368591C0DD025
:1018A0001F2B8BBF03F01F021A4638494FF0A0418F
:1018B00002F5E0724FF0000C41F822C0E1684A1CCA
:1018C00013D01F2987BF314A01F01F0C8C464FF0FF
:1018D000A0424FF0010E0EFA0CFE0CF5E07CC2F8AF
:1018E00008E54FF0030E42F82CE0C0F80815C0F8E8
:1018F00010352C2202FB08F2AB18C3F804902369C0
:10190000AB50B9F1000F20D04FF48E71247FFFF758
:1019100087FE4FF4A2713068FFF782FE32681C4BDD
:10192000C2F80433130B42F307326101002AC9B233
:101930001EDB1848841884F800130121520903F0B3
:101940001F0301FA03F340F8223033680422C3F87E
:1019500000252C2303FB08530022C3E9062283F849
:1019600029205A61012283F82A203846BDE8F883ED
:10197000094A03F00F03D154E7E70827F5E71127D9
:10198000F3E700BF040600209D160000000300508E
:101990008000020000E100E014ED00E02DE9F041DC
:1019A00003680579284C0022C3F800252C2202FB8D
:1019B000054201465268A2B1244AC3F808231A0B13
:1019C00043F30733002B0CDB02F01F005B090122FD
:1019D000824020331E4840F82320BFF34F8FBFF3CF
:1019E0006F8F0B68D3F80C05D3F81485D3F808650E
:1019F000D3F810754FF0FF329042C3F81425C3F8A6
:101A00000C25C3F80825C3F8102501D0FFF7E6FE22
:101A1000B8F1FF3F02D04046FFF7E0FE7A1C02D04B
:101A20003846FFF7DBFE731C02D03046FFF7D6FEC8
:101A30000868FFF7E9FD2C2303FB0544002384F825
:101A40002A306360BDE8F0810406002084020200B1
:101A500000E100E00279044B2C2101FB02335869BC
:101A6000003818BF01207047040600202DE9F84F08
:101A7000064690F8048089469246FFF7EBFF04463D
:101A800000283CD1204F2C2508FB057B4FF48E719C
:101A9000CBF814A0CBF80890CBF820008BF82800E6
:101AA0003068FFF7BDFD3068012383605946FFF7BA
:101AB000BFFDDBF804305D461BBB3068DBF814402B
:101AC0002B6A9C4211D83368D3F81C21002AFBD022
:101AD0000122DA6000202C2303FB087700237B61BE
:101AE000BDE8F88F95F828303BB9D0F81C31002BB1
:101AF000F8D05946FFF79CFDE2E70F20EBE71120F5
:101B0000EEE72046ECE700BF040600200023435028
:101B100082B043580193019B02B070471FB5012367
:101B20008DF80030044BCDE90110D3E9001268466E
:101B3000904705B05DF804FB300600207FB5434AAE
:101B4000D2F82461002E60D010464FF49271FFF756
:101B5000DDFF02238DF80030D2F88034C2F88034E3
:101B60000393D2F83C350293394BDA680192002294
:101B7000C3E906226846D3E9001290473348D0F8FB
:101B8000443173B14FF4A271FFF7C0FF304B9A6933
:101B90003AB10022C3E90622D968D0F83C05FFF724
:101BA000BDFF2A48D0F82031ABB14FF49071FFF758
:101BB000ADFF0123C360264B5A6962B1D0F84C15C2
:101BC0000291002299688DF8002001915A616846BF
:101BD000D3E9001290471D48D0F858319BB14FF41B
:101BE000AC71FFF793FF1A4B5A6962B1D0F84C15EC
:101BF0000291002299688DF8002001915A6168468F
:101C0000D3E90012904704B070BDD2F81031002B18
:101C1000B4D04FF488711046FFF778FF0C4BD2F820
:101C20003C0599698842A9D1DC69D96864B1D2F8C8
:101C3000005225F02005C2F800521A699C61DA6052
:101C4000DE61FFF76BFF99E79C61FAE70020004037
:101C5000300600201F2886BF00F01F00044B4FF005
:101C6000A04300F5E070022243F82020704700BF37
:101C7000000300502DE9F843664E90F804802423B9
:101C800003FB0863044693F820300D469146002B71
:101C900040F0BC8060490068FFF79AFC07460028C6
:101CA00040F0B68029684B1C10D01F2987BF5B4AC3
:101CB00001F01F030B464FF0A0420120984003F5AE
:101CC000E073C2F80805032042F823006A68501C3C
:101CD0000DD01F2A8BBF02F01F0313464F484FF051
:101CE000A04003F5E0734FF0000C40F823C02068DB
:101CF000AB69C0F8243595F814C06B7DBCF1010FB9
:101D00004CEA0303C0F86C35C0F80C15C0F8142574
:101D10002BD1AB68591C0DD01F2B8BBF03F01F02BA
:101D20001A463E494FF0A04102F5E0724FF0000C18
:101D300041F822C0E9684A1C13D01F2987BF374ADF
:101D400001F01F0C8C464FF0A0424FF0010E0EFA2E
:101D50000CFE0CF5E07CC2F808E54FF0030E42F8EB
:101D60002CE0C0F80815C0F81035242202FB08F258
:101D7000B318C3F804902B69B350B9F1000F2FD0FA
:101D80004FF488712A7FFFF7C1FE20684FF49071ED
:101D9000FFF7BCFE20684FF49271FFF7B7FE206892
:101DA0004FF4A271FFF7B2FE4FF4AC712068FFF759
:101DB000ADFE23681A49C3F80413190B43F3073324
:101DC0005201002BD2B21CDB1648C51885F800233F
:101DD00001225B0901F01F0102FA01F140F8231012
:101DE00023680822C3F80025242303FB0866002388
:101DF000C6E906337361012386F820303846BDE812
:101E0000F883094B01F00F015A54E9E70827F5E779
:101E10001127F3E7300600203D1B000000030050AF
:101E20001003420000E100E014ED00E02DE9F04174
:101E30003D4D06790468242303FB065302465B6884
:101E4000ABB13A4BC4F8083344F30733002B4FEAE5
:101E500014310CDB01F01F005B09012181402033AC
:101E6000334840F82310BFF34F8FBFF36F8FD4F880
:101E7000003223F02003C4F80032242303FB06536E
:101E80009B6933B14FF4A2712046FFF73FFE012357
:101E900063604FF4AC712046FFF738FE0123E36026
:101EA000242303FB0653D4F858110029FBD0996969
:101EB00019B1D4F844110029F5D00023C4F8003535
:101EC0001368D3F80C05D3F81485D3F80815D3F8A4
:101ED00010754FF0FF329042C3F80C25C3F814255B
:101EE000C3F80825C3F8102501D0FFF7B3FEB8F1F9
:101EF000FF3F02D04046FFF7ADFE7A1C02D03846C5
:101F0000FFF7A8FE4B1C02D00846FFF7A3FE2046B1
:101F1000FFF77AFB242303FB0655002385F82030C6
:101F20006B60BDE8F08100BF300600201003420066
:101F300000E100E00279044B242101FB02335869DF
:101F4000003818BF012070473006002001F06043C0
:101F5000B3F1005F2DE9F0470646884692463BD133
:101F600090F80490FFF7E6FF0446002836D11D4F95
:101F70003068242505FB09754FF49071C5F814A04D
:101F8000C5F80880FFF7C2FD4FF4AC713068FFF769
:101F9000BDFD33686A69A968C3F84415C3F84825CC
:101FA00001229A606A68DAB9D3F82021D3F858017F
:101FB0001AB90028F8D00F2007E00028FBD1012231
:101FC000DA60D3F85821002AFBD0242303FB0977D9
:101FD00000237B61BDE8F0871020FBE71120F9E7C3
:101FE0002046F7E730060020034B044AC3F81025CB
:101FF000034AC3F81425704700600040032803001B
:10200000010B0200074B0322C3F8082542F21072AD
:10201000C3F84425044AC3F8482540F20442C3F8F3
:102020000022704700800040301B0F00064B032247
:10203000C3F8082542F21072C3F8402540F201129D
:10204000C3F80022704700BF00900040154B0022EB
:102050000721C3F80C25C3F808151349C3F8102548
:10206000C3F8241501F10431C3F828150F49C3F84A
:102070001C150F49C3F82015C3F82C25C3F81425E7
:102080000C4AC3F818250222C3F834254FF6FF7214
:10209000C3F83C25084AC3F83825084AC3F8042584
:1020A000704700BF00100040F0F1F2F397190714D9
:1020B0003119081601010400211001001C00002044
:1020C000184B194A1949C3F81025A2F54552C3F80F
:1020D0001425C3F8101901F5A271C3F81815C3F837
:1020E0001C2502F505520832A1F5E241C3F820256E
:1020F0003C3902F6B862C3F82425C3F81819A1F6D2
:102100000871C3F8281501F57061C3F82C1501F5A5
:10211000A2410431C3F83015C3F834251F22C3F897
:102120000425704700F001404091004000800040CD
:1021300008B5FFF759FFFFF765FFFFF777FFFFF7D8
:1021400085FFFFF7BDFF4FF0804301221A6020BFDB
:10215000FDE74FF08053D3F83001A0F10803584257
:10216000584170474FF08053D3F83021082A06D1E8
:10217000D3F83431032B02D8024AD05C70470020D8
:10218000704700BFA126000008B5FFF7E2FF40B18D
:102190004FF080430022C3F80C21C3F81021C3F88C
:1021A0003825FFF7D6FF002846D04FF08052614B0C
:1021B000D2F80414C3F82015D2F80814C3F8241573
:1021C000D2F80C14C3F82815D2F81014C3F82C1543
:1021D000D2F81414C3F83015D2F81814C3F8341513
:1021E000D2F81C14C3F84015D2F82014C3F84415D3
:1021F000D2F82414C3F84815D2F82814C3F84C15A3
:10220000D2F82C14C3F85015D2F83014C3F8541572
:10221000D2F83414C3F86015D2F83814C3F8641532
:10222000D2F83C14C3F86815D2F84014C3F86C1502
:10223000D2F84424C3F87025FFF794FF18B13E4B41
:102240003E4AC3F88C26FFF78DFF18B13C4BFB22AA
:10225000C3F81825FFF786FF70B14FF080414FF0AB
:102260008053D1F8E42ED3F8583222F00F0203F055
:102270000F031343C1F8E43EFFF774FF20B1314B65
:102280004FF40072C3F84026FFF763FF48B14FF0E8
:102290008043D3F80024D20744BF6FF00102C3F893
:1022A0000024294AD2F8883043F47003C2F88830F9
:1022B000BFF34F8FBFF36F8F4FF01023D3F800227F
:1022C000002A03DBD3F80432002B2EDA1F4B012245
:1022D000C3F80425D3F80024002AFBD04FF01022C5
:1022E0001221C2F80012D3F80024002AFBD04FF0CC
:1022F00010231222C3F80422144BD3F80024002A1E
:10230000FBD00022C3F80425D3F80024002AFBD018
:10231000BFF34F8F0C490E4BCA6802F4E0621343BF
:10232000CB60BFF34F8F00BFFDE70A4B0A4A1A602C
:1023300008BD00BF00C000400050004048810300BD
:1023400000F000400090024000ED00E000E001409D
:102350000400FA05200000200090D0037F2805D853
:10236000034B185C034B5B5C1840704700207047C0
:10237000B426000034270000A0F16103192B98BF98
:1023800020387047A0F14103192B98BF20307047C7
:102390007F2805D8034B185C034B5B5C18407047E3
:1023A00000207047B426000034270000A0F161032C
:1023B000192B98BF20387047A0F14103192B98BF03
:1023C000203070477F299ABF017001206FF02E00E6
:1023D00070475AB10A787F2A0AD800B102600021FA
:1023E00019605960501A18BF0120704700207047CB
:1023F0006FF02E007047000008B5034B5B689B68C8
:102400001B68984708BD00BF2400002008B50921BB
:10241000FFF7F2FF08BD844640EA010313F0030F03
:1024200018D18446202A0BD32DE9F007B1E8F8072C
:10243000A0E8F807A2F12002202AF7D2BDE8F007B1
:10244000042A07D351F8043B40F8043BA2F10402EC
:10245000042AF7D2002A05D011F8013B00F8013B0D
:10246000013AF9D16046704700F1010110F0030F05
:1024700011D010F8012B002A23D010F0030F0AD03E
:1024800010F8012B002A1CD010F0030F03D010F815
:10249000012B002A15D02DE970004FF001324FF0CA
:1024A000803350F8044BA4EB020525EA04051D40D7
:1024B00000D1F6E7A0F1040070BC10F8012B002A4F
:0824C000FBD1A0EB0100704705
:1024C8008B2600000000000092260000000000009B
:1024D80096260000000000009B2600000000000077
:1024E8007A250000000003034426000000000000D5
:1024F800682600000000000082260000000000009E
:102508004C250000000000005825000014000020A1
:102518007C000020440100204C01002084000020A1
:042528001800000097
:10252C00FFFFFFFFFFFFFFFFFFFFFFFFFFFFFFFFAF
:10253C0000000000000000000000D60106010000B1
:10254C00F104000055050000A104000075617274CF
:10255C005F6C6F675F6261636B656E6400426163A1
:10256C006B656E647320666C75736865640061706E
:10257C0070001B5B313B33316D0025734C6F6773FF
:10258C002064726F70706564202825642925730D92
:10259C000A001B5B306D002573003C25733E202523
:1025AC00733A2000202530327800202020007C0057
:1025BC002563001B5B313B33306D001B5B313B33C0
:1025CC00326D001B5B313B33336D001B5B313B3396
:1025DC00346D001B5B313B33356D001B5B313B3382
:1025EC00366D001B5B313B33376D007761726E6962
:1025FC006E6700696E666F00646562756700000047
:10260C009E250000BF2500007E250000C725000088
:10261C00CF250000D7250000DF250000E7250000AE
:10262C00EF2500000000000055260000F7250000F3
:10263C00FF250000042600006170705F62757474E1
:10264C006F6E00466174616C206572726F7200531C
:10265C00797374656D207265736574006170705F59
:10266C0074696D6572003031323334353637383930
:10267C00414243444546736F72746C6973740047EE
:10268C0050494F5445005052530055415254005537
:10269C0041525445000100000000000043000000BE
:1026AC00504F53495800000020202020202020208B
:1026BC0020682828282820202020202020202020A6
:1026CC002020202020202020481010101010101046
:1026DC00101010101010101084848484848484844E
:1026EC00848410101010101010818181818181015F
:1026FC0001010101010101010101010101010101BE
:10270C00010101101010101010828282828282024C
:10271C00020202020202020202020202020202028D
:10272C0002020210101010200007032004170201EF
:10273C000857104080000000A8260000AC270000BD
:10274C00C028000053756E004D6F6E005475650007
:10275C0057656400546875004672690053617400D3
:10276C00000000004A616E00466562004D61720017
:10277C00417072004D6179004A756E004A756C00AB
:10278C0041756700536570004F6374004E6F76009F
:10279C004465630000000000414D00504D000000F6
:1027AC00E4280000E0280000E0280000E0280000F9
:1027BC00E0280000E0280000E0280000E0280000ED
:1027CC00E0280000E0280000FFFFFFFFFFFFFFFFF5
:1027DC00FFFFFFFFFFFF0000202800005027000034
:1027EC005C28000070270000A427000004280000CB
:1027FC00B428000010280000256D2F25642F2579A2
:10280C00000000002561202562202565202554202C
:10281C002559000053756E646179004D6F6E6461CB
:10282C00790054756573646179005765646E6573DE
:10283C0064617900546875727364617900467269D9
:10284C0064617900536174757264617900000000F1
:10285C004A616E7561727900466562727561727952
:10286C00004D6172636800417072696C004D617952
:10287C00004A756E65004A756C7900417567757311
:10288C00740053657074656D626572004F63746F8C
:10289C00626572004E6F76656D62657200446563A9
:1028AC00656D62657200000025483A254D3A255346
:1028BC00000000005D230000792300008523000048
:1028CC0091230000AD230000B9230000C5230000B4
:0A28DC00D3230000000000002E00CE
:1028E8000000000000200040000000000020004020
:1028F8000000000000000000FF0000002A000000A7
:102908000090D0034427000044270000442700001B
:082918004427000044270000E1
:040000030000037581
:00000001FF
